:1000000009C0E1C040C11FC01EC01DC018C11BC037
:100010001AC019C011241FBECFE9CDBF10E0A0E661
:10002000B0E0E4EBF2E002C005900D92A836B10713
:10003000D9F720E0A8E6B0E001C01D92AC36B207C7
:10004000E1F789D035C1DCCFF89411BC19BE92E03C
:100050009FBD83E083BF8EE286BF1BBE17BA8FEFC2
:1000600088BB85B78F7B85BF18B810926B0085B7AA
:100070008C7F85BF85B7877E85BF84E085BB9093E5
:100080006600B89AE3E6F0E041E050E08191883004
:1000900078F427B3BA0102C0660F771F8A95E2F79A
:1000A000CB01922F982B97BB98B38095892388BB5F
:1000B00070E0E636F70751F70895E3E6F0E061E017
:1000C00070E091919830A8F4882349F048B39B01DF
:1000D00001C0220F9A95EAF7242B28BB0AC028B347
:1000E000AB0101C0440F9A95EAF7942F90959223A3
:1000F00098BB90E0E636F90721F7089599B79B7F02
:1001000099BFE82FF0E0E05AFF4F8081882321F06B
:10011000813021F4C09A05C0C09803C089B78460BB
:1001200089BF80E0CADFE0916600F0E0ED59FF4F43
:1001300020812E3F21F02F3F21F480E001C081E09B
:10014000BCCF38B381E090E001C0880F2A95EAF770
:10015000832B88BB089578DFB29B02C080E001C08A
:1001600082E0CCDF8BB780628BBF78948BB78064E2
:100170008BBFC2E090916B00992309F1892F8370A6
:10018000813019F0823049F00AC0809166008F5F9B
:10019000823018F01092660002C08093660092FFD1
:1001A00009C080916A00882319F01092660002C08D
:1001B000C093660080916600A1DF10926B0088EC0E
:1001C0008A95F1F7D7CF1F920F920FB60F92112495
:1001D0008F939F93EF93FF938BB78F7B8BBF89ECAC
:1001E00098E00197F1F700C000008CE291E0B1992E
:1001F00012C0EBEDF5E03197F1F700C00000019778
:10020000B1F7B09A87E99AE30197F1F700C00000CF
:10021000B09A82E001C081E0B19BFECF90916B006B
:10022000892B80936B008BB780648BBFFF91EF911C
:100230009F918F910F900FBE0F901F9018951F9256
:100240000F920FB60F9211242F933F938F939F938A
:1002500080916800909169009C012F5F3F4F30931F
:10026000690020936800C29729F4B09A109269003F
:10027000109268009F918F913F912F910F900FBE28
:100280000F901F9018951F920F920FB60F92112486
:100290008F9386B3847080936A0080916B00846032
:1002A00080936B008F910F900FBE0F901F90189549
:0402B000F894FFCFF0
:0802B4000002010304FE020038
:00000001FF
